:100000000C9434000C943E000C943E000C943E0082
:100010000C943E000C943E000C943E000C943E0068
:100020000C943E000C943E000C943E000C943E0058
:100030000C943E000C943E000C943E000C943E0048
:100040000C943E000C943E000C943E000C943E0038
:100050000C943E000C943E000C943E000C943E0028
:100060000C943E000C943E0011241FBECFEFD8E04C
:10007000DEBFCDBF0E9453000C9469000C940000B9
:1000800007C0EFEFFEE03197F1F700C000000197E5
:100090000097B9F708958FE384B915B808958F7361
:1000A000992785B908950E944B00E12CF12CC701D6
:1000B0008F73992785B98FEFE81AF80A80E4E8165C
:1000C000F10414F0E12CF12C84E690E00E94400051
:0600D000EECFF894FFCF13
:00000001FF
